:020000040800F2
:1000000000280020291E0008691C00086F1C000839
:10001000751C00087B1C0008811C00080000000003
:10002000000000000000000000000000871C000825
:10003000931C0008000000009F1C0008AB1C000877
:10004000711E0008711E0008711E0008711E000854
:10005000711E0008711E0008711E0008711E000844
:10006000711E0008711E0008711E0008711E000834
:10007000711E0008711E0008711E0008711E000824
:10008000711E0008711E0008711E0008711E000814
:10009000711E0008711E0008711E0008711E000804
:1000A000711E0008711E0008711E0008711E0008F4
:1000B000B91C0008711E000800000000711E000835
:1000C000711E00080000000000000000711E000802
:1000D00000000000711E0008711E000800000000F2
:1000E000711E0008711E0008711E0008000000004B
:1000F0000000000000000000000000000000000000
:0C01000000000000000000005FF808F1A3
:10010C0010B5054C237833B9044B13B10448AFF345
:10011C0000800123237010BD3C0000200000000073
:10012C00C034000808B5034B1BB103490348AFF3B7
:10013C00008008BD0000000040000020C034000812
:10014C0080B483B000AF7860094A7B6852F82330E2
:10015C00012B06D1064A7B68002142F823100123AB
:10016C0000E0002318460C37BD4680BC704700BF2A
:10017C005800002080B483B000AF7860044A7B68DC
:10018C00012142F8231000BF0C37BD4680BC7047DC
:10019C005800002080B483B000AF7860044A7B68BC
:1001AC00012142F8231000BF0C37BD4680BC7047BC
:1001BC006400002080B582B000AF00237B60AEE00D
:1001CC005B4A7B6852F823205A497B6841F823200C
:1001DC00594A7B6852F8232055497B6841F8232003
:1001EC007B68002B0BD14FF40051544802F028F9D6
:1001FC0003461946504A7B6842F823101CE07B6882
:10020C00012B0BD14FF480414C4802F019F90346F5
:10021C001946494A7B6842F823100DE07B68022B93
:10022C000AD14FF40041464802F00AF90346194638
:10023C00414A7B6842F823103E4A7B6852F82320DF
:10024C003B497B6851F823309A425ED1384A7B682F
:10025C0052F8232038497B6851F823309A4254D104
:10026C00384A7B6852F8232033497B6851F8233095
:10027C009A4216D0304A7B6852F8232031497B6869
:10028C0041F823202C4A7B6852F82330002B42D1B2
:10029C002D4A7B68002142F823107868FFF76AFF2B
:1002AC0039E02A4A7B6852F82330012B14D1264AB4
:1002BC007B6852F823305A1C23497B6841F8232071
:1002CC00214A7B6852F82330642B24DD1D4A7B685D
:1002DC00012142F823101EE01B4A7B6852F82330A0
:1002EC005A1C19497B6841F82320174A7B6852F83D
:1002FC002330B3F5967F0EDD7868FFF74BFF114A7C
:10030C007B68012142F8231005E0104A7B6800212C
:10031C0042F8231000E000BF7B6801337B607B68F0
:10032C00022B7FF74DAF00BF00BF0837BD4680BD25
:10033C000C000020000000201800002000100140DC
:10034C00000C0140240000207000002064000020FC
:10035C0080B582B000AF78607B68092B01DD00238B
:10036C007B607B68002B23D100220121C04802F066
:10037C007EF800220221BE4802F079F80022042106
:10038C00BB4802F074F800220821B94802F06FF85B
:10039C0000221021B64802F06AF800222021B4484D
:1003AC0002F065F801224021B14802F060F85AE1F0
:1003BC007B68012B23D101220121AD4802F057F8B3
:1003CC0000220221AA4802F052F800220421A84877
:1003DC0002F04DF801220821A54802F048F801224C
:1003EC001021A34802F043F801222021A04802F07A
:1003FC003EF8012240219E4802F039F833E17B6837
:10040C00022B23D100220121994802F030F800225E
:10041C000221974802F02BF801220421944802F0A3
:10042C0026F800220821924802F021F8002210211F
:10043C008F4802F01CF8012220218D4802F017F899
:10044C00002240218A4802F012F80CE17B68032B51
:10045C0023D100220121864802F009F80022022152
:10046C00834802F004F800220421814801F0FFFFC8
:10047C00002208217E4801F0FAFF012210217C485D
:10048C0001F0F5FF01222021794801F0F0FF002254
:10049C004021774801F0EBFFE5E07B68042B23D18A
:1004AC0001220121724801F0E2FF00220221704872
:1004BC0001F0DDFF002204216D4801F0D8FF01227C
:1004CC0008216B4801F0D3FF01221021684801F08C
:1004DC00CEFF00222021664801F0C9FF00224021F6
:1004EC00634801F0C4FFBEE07B68052B23D10022DA
:1004FC0001215F4801F0BBFF012202215C4801F0A1
:10050C00B6FF002204215A4801F0B1FF0022082155
:10051C00574801F0ACFF01221021554801F0A7FF0C
:10052C0000222021524801F0A2FF00224021504815
:10053C0001F09DFF97E07B68062B23D1002201215F
:10054C004B4801F094FF01220221494801F08FFF32
:10055C0000220421464801F08AFF00220821444869
:10056C0001F085FF00221021414801F080FF00229C
:10057C0020213F4801F07BFF002240213C4801F044
:10058C0076FF70E07B68072B23D1002201213848CD
:10059C0001F06DFF00220221354801F068FF0022B6
:1005AC000421334801F063FF01220821304801F097
:1005BC005EFF012210212E4801F059FF012220215B
:1005CC002B4801F054FF01224021294801F04FFF34
:1005DC0049E07B68082B23D100220121244801F03B
:1005EC0046FF00220221224801F041FF0022042193
:1005FC001F4801F03CFF002208211D4801F037FF85
:10060C00002210211A4801F032FF00222021184844
:10061C0001F02DFF00224021154801F028FF22E0B7
:10062C0000220121124801F022FF00220221104871
:10063C0001F01DFF002204210D4801F018FF0022DB
:10064C0008210B4801F013FF01221021084801F08A
:10065C000EFF00222021064801F009FF0022402154
:10066C00034801F004FF00BF0837BD4680BD00BF42
:10067C00000C014080B582B000AF78607B68092B1C
:10068C0001DD00237B607B68002B29D100228021B7
:10069C00C74801F0ECFE00224FF48071C44801F011
:1006AC00E6FE00224FF40071C14801F0E0FE00228A
:1006BC004FF48061BE4801F0DAFE00224FF4006175
:1006CC00BB4801F0D4FE00224FF48051B84801F031
:1006DC00CEFE01224FF40051B54801F0C8FE92E164
:1006EC007B68012B29D101228021B14801F0BFFE8A
:1006FC0000224FF48071AE4801F0B9FE00224FF495
:10070C000071AB4801F0B3FE01224FF48061A848A0
:10071C0001F0ADFE01224FF40061A54801F0A7FEE7
:10072C0001224FF48051A24801F0A1FE01224FF4A6
:10073C0000519F4801F09BFE65E17B68022B29D19B
:10074C00002280219A4801F092FE00224FF4807121
:10075C00974801F08CFE01224FF40071944801F08F
:10076C0086FE00224FF48061914801F080FE002249
:10077C004FF400618E4801F07AFE01224FF4805153
:10078C008B4801F074FE00224FF40051884801F0B0
:10079C006EFE38E17B68032B29D10022802184482E
:1007AC0001F065FE00224FF48071814801F05FFE7C
:1007BC0000224FF400717E4801F059FE00224FF4E4
:1007CC0080617B4801F053FE01224FF400617848B0
:1007DC0001F04DFE01224FF48051754801F047FEA7
:1007EC0000224FF40051724801F041FE0BE17B688E
:1007FC00042B29D1012280216D4801F038FE002202
:10080C004FF480716A4801F032FE00224FF40071FF
:10081C00674801F02CFE01224FF48061644801F01E
:10082C0026FE01224FF40061614801F020FE0022F7
:10083C004FF480515E4801F01AFE00224FF4005133
:10084C005B4801F014FEDEE07B68052B29D1002209
:10085C008021574801F00BFE01224FF4807154485F
:10086C0001F005FE00224FF40071514801F0FFFD2C
:10087C0000224FF480614E4801F0F9FD01224FF443
:10088C0000614B4801F0F3FD00224FF480514848C1
:10089C0001F0EDFD00224FF40051454801F0E7FD59
:1008AC00B1E07B68062B29D100228021404801F061
:1008BC00DEFD01224FF480713D4801F0D8FD00228D
:1008CC004FF400713A4801F0D2FD00224FF48061E0
:1008DC00374801F0CCFD00224FF40061344801F0A0
:1008EC00C6FD00224FF48051314801F0C0FD0022BA
:1008FC004FF400512E4801F0BAFD84E07B68072BC1
:10090C0029D1002280212A4801F0B1FD00224FF4A8
:10091C008071274801F0ABFD00224FF40071244890
:10092C0001F0A5FD01224FF48061214801F09FFDEB
:10093C0001224FF400611E4801F099FD01224FF491
:10094C0080511B4801F093FD01224FF400511848CF
:10095C0001F08DFD57E07B68082B2BD10022802104
:10096C00134801F084FD00224FF48071104801F00F
:10097C007EFD00224FF400710D4801F078FD00223D
:10098C004FF480610A4801F072FD00224FF40061BF
:10099C00074801F06CFD00224FF48051044801F02F
:1009AC0066FD00224FF40051014801F060FD2AE081
:1009BC00000C014000228021154801F058FD002256
:1009CC004FF48071124801F052FD00224FF4007177
:1009DC000F4801F04CFD00224FF480610C4801F0EF
:1009EC0046FD01224FF40061094801F040FD002250
:1009FC004FF48051064801F03AFD00224FF40051AB
:100A0C00034801F034FD00BF0837BD4680BD00BF70
:100A1C00000C014080B500AFAA4B1B68212B00F0E5
:100A2C00EC80212B00F34481202B00F08B80202BB9
:100A3C0000F33E81002B02D01F2B27D038E101227E
:100A4C004021A14801F013FD012280219E4801F0B4
:100A5C000EFD01224FF480719B4801F008FD994B6B
:100A6C001F221A6041F2883000F0B4FF4FF47A7004
:100A7C0000F094FF642000F075FF944B04221A6080
:100A8C00924B1B68184601F04FF918E100224021E7
:100A9C008D4801F0ECFC012280218B4801F0E7FC31
:100AAC0001224FF48071884801F0E1FC884B1B68EF
:100ABC00012B15D1834B21221A6040F6B83000F07F
:100ACC0089FF4FF47A7000F069FF642000F04AFF50
:100ADC007E4B02221A607D4B1B68184601F024F9EC
:100AEC007C4B1B68002B14DD4FF47A7000F056FF22
:100AFC00764B1B68013B754A1360744B1B68002BCB
:100B0C0002DA724B00221A60704B1B68184601F017
:100B1C000BF9714B1B68002B40F3CC804FF4FA702F
:100B2C0000F020FF6D4B1B68012B02DD6B4B00228C
:100B3C001A606A4B1B685A1C68490A60184601F017
:100B4C0039F9B7E0012240215F4801F090FC002206
:100B5C0080215D4801F08BFC01224FF480715A48D2
:100B6C0001F085FC5A4B1B68012B15D1554B1F22EC
:100B7C001A6041F2883000F02DFF4FF47A7000F0CB
:100B8C000DFF642000F0EEFE504B04221A604F4B18
:100B9C001B68184601F0C8F84E4B1B68002B14DD7F
:100BAC004FF47A7000F0FAFE484B1B68013B474A41
:100BBC001360464B1B68002B02DA444B00221A6070
:100BCC00424B1B68184601F0AFF8434B1B68002BD7
:100BDC0072DD4FF4FA7000F0C5FE404B1B68012B20
:100BEC0002DD3E4B00221A603C4B1B685A1C3B49F1
:100BFC000A60184601F0DEF85EE00122402132481E
:100C0C0001F035FC012280212F4801F030FC00223C
:100C1C004FF480712C4801F02AFC2D4B1B68012BE2
:100C2C0015D1284B20221A604FF4FA6000F0D2FE46
:100C3C004FF47A7000F0B2FE642000F093FE234B68
:100C4C0001221A60214B1B68184601F06DF8214BEC
:100C5C001B68002B14DD4FF47A7000F09FFE1B4BC9
:100C6C001B68013B194A1360184B1B68002B02DAF6
:100C7C00164B00221A60154B1B68184601F054F8ED
:100C8C00154B1B68002B19DD4FF4FA7000F06AFE4F
:100C9C00124B1B68012B02DD104B00221A600F4B0C
:100CAC001B685A1C0D490A60184601F083F805E0D0
:100CBC0000BF04E000BF02E000BF00E000BF00BFC7
:100CCC0080BD00BF8C00002000080140880000207F
:100CDC00E8000020F0000020F80000209400002024
:100CEC0080B500AFAE4B1B68212B00F0F280212B9E
:100CFC0000F34C81202B00F08F80202B00F34681D9
:100D0C00002B02D01F2B29D040E101224FF400719F
:100D1C00A44801F0ACFB01224FF48061A14801F022
:100D2C00A6FB01224FF400619E4801F0A0FB9C4BF6
:100D3C0021221A6040F6B83000F0F8FD4FF47A70BA
:100D4C0000F0D8FD642000F0B9FD974B03221A6027
:100D5C00954B1B68184600F0B9FF1EE100224FF4BA
:100D6C000071904801F083FB01224FF480618D48A3
:100D7C0001F07DFB01224FF400618A4801F077FB02
:100D8C008A4B1B68002B15DD854B21221A6040F61F
:100D9C00B83000F0CBFD4FF47A7000F0ABFD64205E
:100DAC0000F08CFD804B03221A607F4B1B681846A9
:100DBC0000F08CFF7E4B1B68002B14DD4FF47A7017
:100DCC0000F098FD784B1B68013B774A1360764B1B
:100DDC001B68002B02DA744B00221A60724B1B68E2
:100DEC00184600F073FF734B1B68002B40F3D08048
:100DFC004FF4FA7000F062FD6F4B1B68012B02DDA3
:100E0C006D4B00221A606C4B1B685A1C6A490A60B5
:100E1C00184600F09BFFBBE001224FF400716148C3
:100E2C0001F025FB00224FF480615E4801F01FFBAE
:100E3C0001224FF400615B4801F019FB5B4B1B680E
:100E4C00012B15D1564B1F221A6041F2883000F04D
:100E5C006DFD4FF47A7000F04DFD642000F02EFD16
:100E6C00514B05221A60504B1B68184600F02EFFA0
:100E7C004F4B1B68002B14DD4FF47A7000F03AFDD9
:100E8C00494B1B68013B484A1360474B1B68002BBE
:100E9C0002DA454B00221A60434B1B68184600F0DF
:100EAC0015FF444B1B68002B74DD4FF4FA7000F0F7
:100EBC0005FD414B1B68012B02DD3F4B00221A60E4
:100ECC003D4B1B685A1C3C490A60184600F03EFF1B
:100EDC0060E001224FF40071324801F0C8FA01229F
:100EEC004FF480612F4801F0C2FA00224FF40061E8
:100EFC002C4801F0BCFA2D4B1B68012B15D1284B4B
:100F0C0020221A604FF4FA6000F010FD4FF47A7052
:100F1C0000F0F0FC642000F0D1FC234B02221A609C
:100F2C00214B1B68184600F0D1FE214B1B68002B8F
:100F3C0014DD4FF47A7000F0DDFC1B4B1B68013B99
:100F4C00194A1360184B1B68002B02DA164B00224F
:100F5C001A60154B1B68184600F0B8FE154B1B6841
:100F6C00002B19DD4FF4FA7000F0A8FC124B1B6833
:100F7C00012B02DD104B00221A600F4B1B685A1C10
:100F8C000D490A60184600F0E1FE05E000BF04E0E0
:100F9C0000BF02E000BF00E000BF00BF80BD00BF8B
:100FAC00900000200008014080000020000100207B
:100FBC0008010020100100207C00002080B500AF4B
:100FCC0000F052FF00F034F800F0BAF800F06CF8C2
:100FDC00144801F0ABFE00220221134801F047FA3D
:100FEC0000220421104801F042FA002208210E4888
:100FFC0001F03DFA002210210B4801F038FA4FF4B1
:10100C007A7000F0EBFB094B1B68002B07DD4FF4EB
:10101C007A7000F0E3FB2021034801F040FA00F065
:10102C0027F9F0E79C00002000080140380100205F
:10103C0080B590B000AF07F11803282200211846A4
:10104C0002F00CFA3B1D00221A605A609A60DA60BA
:10105C001A610223BB610123BB621023FB620023D4
:10106C007B6307F11803184601F032FA0346002B94
:10107C0001D000F0EFF80F237B600023BB6000234E
:10108C00FB6000233B6100237B613B1D0021184664
:10109C0001F0A0FC0346002B01D000F0DBF800BFF0
:1010AC004037BD4680BD000080B586B000AF07F16B
:1010BC00080300221A605A609A60DA603B460022EC
:1010CC001A605A601D4B4FF080421A601B4B41F660
:1010DC003F725A60194B00229A60184B0922DA6051
:1010EC00164B00221A61154B00229A61134801F02D
:1010FC00CDFD0346002B01D000F0ACF84FF480532B
:10110C00BB6007F1080319460C4801F063FF034666
:10111C00002B01D000F09EF800233B6000237B6085
:10112C003B461946054802F02FF90346002B01D027
:10113C0000F090F800BF1837BD4680BD9C00002021
:10114C0080B588B000AF07F1100300221A605A6016
:10115C009A60DA60354B9B69344A43F01003936113
:10116C00324B9B6903F01003FB60FB682F4B9B69B0
:10117C002E4A43F0040393612C4B9B6903F0040348
:10118C00BB60BB68294B9B69284A43F008039361F9
:10119C00264B9B6903F008037B607B68002240F6BA
:1011AC00FE71234801F063F9002243F6FF712148D8
:1011BC0001F05DF94FF4C0433B6100237B610123D7
:1011CC00BB6107F1100319461B4800F0BDFF40F648
:1011DC00FE733B6101237B610023BB610223FB6136
:1011EC0007F110031946124800F0AEFF43F6FF73E7
:1011FC003B6101237B610023BB610223FB6107F18F
:10120C00100319460B4800F09FFF4FF400433B615D
:10121C0000237B610123BB6107F1100319460548CC
:10122C0000F092FF00BF2037BD4680BD0010024089
:10123C0000080140000C01400010014080B582B054
:10124C0000AF786000F0E2FBFEF7B4FF00BF083798
:10125C00BD4680BD80B400AF72B600BFFEE780B55E
:10126C0000AFFFF7D7FBFFF73BFD00BF80BD0000D1
:10127C0080B500AF934B1B68032B00F2A38201A235
:10128C0052F823F0A11200083B130008FD140008CB
:10129C0093160008FFF7E3FF0020FEF751FF03460B
:1012AC00002B00F09182874B01221A60864B0022A2
:1012BC001A60864B01221A60854B00221A60854BFE
:1012CC0000221A604FF4FA7000F0DCFA4FF4FA7056
:1012DC0000F0A0FA7C4B1B68184600F0F7FC794B29
:1012EC001B68184600F020FD002240217A4801F0CE
:1012FC00BEF800224FF40071774801F0B8F80122D3
:10130C008021754801F0B3F801224FF480617248D6
:10131C0001F0ADF801224FF480716F4801F0A7F88D
:10132C0001224FF400616C4801F0A1F84CE26B4BC8
:10133C001B68002B21DD4FF4FA7000F06BFA644B44
:10134C001B68012B02DD624B00221A60604B1B688C
:10135C005A1C5F490A60184600F02CFD5D4B1B6857
:10136C00012B02DD5B4B00221A605A4B1B685A1C86
:10137C0058490A60184600F0E9FC594B1B68002BD1
:10138C000DDD4FF47A7000F061FA504B1B68013B95
:10139C004E4A13604D4B1B68184600F097FC514B9E
:1013AC001B68002B0CDD4FF4FA7000F06BFA402137
:1013BC00494801F074F84FF40071474801F06FF898
:1013CC000120FEF7BDFE0346002B10D03E4B1B68E0
:1013DC0001333D4A13603C4B1B68632B02DD3A4BD7
:1013EC0000221A60384B1B68184600F06FFC022074
:1013FC00FEF7A6FE0346002B07D0334B1B68334A7F
:10140C0013604FF47A7000F021FA0020FEF798FE7A
:10141C000346002B42D02B4B02221A602A4B00228F
:10142C001A602A4B01221A60294B00221A60294BA0
:10143C0000221A604FF4FA7000F024FA4FF4FA709C
:10144C0000F0E8F9204B1B68184600F03FFC1D4BE0
:10145C001B68184600F068FC012240211E4801F070
:10146C0006F801224FF400711B4801F000F800222D
:10147C008021194800F0FBFF00224FF480611648D0
:10148C0000F0F5FF01224FF48071134800F0EFFFDC
:10149C0001224FF40061104800F0E9FF0B4B1B6870
:1014AC00002B00F39381074B00221A600E4B002295
:1014BC001A600E4B00221A60024B1B68184600F093
:1014CC0033FC83E184000020800000208800002091
:1014DC009400002098000020000801402801002002
:1014EC0020010020180100208C000020900000201A
:1014FC00A94B1B68002B21DD4FF4FA7000F08AF920
:10150C00A64B1B68012B02DDA44B00221A60A34BD7
:10151C001B685A1CA1490A60184600F04BFCA04BF2
:10152C001B68012B02DD9E4B00221A609C4B1B6832
:10153C005A1C9B490A60184600F008FC994B1B6822
:10154C00002B0DDD4FF47A7000F080F9964B1B6880
:10155C00013B954A1360944B1B68184600F0B6FB90
:10156C00924B1B68002B0CDD4FF4FA7000F08AF9DB
:10157C0080218F4800F093FF4FF480618C4800F07D
:10158C008EFF0120FEF7DCFD0346002B10D0894BAB
:10159C001B680133874A1360864B1B68632B02DD83
:1015AC00844B00221A60834B1B68184600F08EFB9C
:1015BC000220FEF7C5FD0346002B07D07D4B1B68B0
:1015CC00794A13604FF47A7000F040F90020FEF76E
:1015DC00B7FD0346002B42D0774B03221A60754BA4
:1015EC0000221A60704B01221A606C4B00221A60A8
:1015FC006B4B00221A604FF4FA7000F043F94FF471
:10160C00FA7000F007F96B4B1B68184600F05EFB94
:10161C00694B1B68184600F087FB01224021644887
:10162C0000F025FF01224FF40071614800F01FFF0C
:10163C00012280215E4800F01AFF01224FF48061E4
:10164C005B4800F014FF00224FF48071584800F002
:10165C000EFF00224FF40061554800F008FF524B7A
:10166C001B68002B00F3B480534B00221A60534BC1
:10167C0000221A60524B00221A604F4B1B6818460E
:10168C0000F052FBA4E0444B1B68002B21DD4FF40F
:10169C00FA7000F0BFF8414B1B68012B02DD3F4B89
:1016AC0000221A603D4B1B685A1C3C490A601846C4
:1016BC0000F080FB3A4B1B68012B02DD384B0022FB
:1016CC001A60374B1B685A1C35490A60184600F0E3
:1016DC003DFB344B1B68002B0DDD4FF47A7000F092
:1016EC00B5F8314B1B68013B2F4A13602E4B1B681E
:1016FC00184600F0EBFA2D4B1B68002B0DDD4FF458
:10170C00FA7000F0BFF84FF48071294800F0C7FE62
:10171C004FF40061264800F0C2FE0120FEF710FDD8
:10172C000346002B10D0234B1B680133214A136056
:10173C00204B1B68632B02DD1E4B00221A601D4BD5
:10174C001B68184600F0C2FA0220FEF7F9FC0346AB
:10175C00002B07D0174B1B68134A13604FF47A7099
:10176C0000F074F80020FEF7EBFC0346002B03D1CD
:10177C000D4B1B68002B2DDC0F4B00221A600F4BFE
:10178C0000221A600E4B00221A600B4B1B68184685
:10179C0000F0CAFA1EE000BF2801002094000020CF
:1017AC009800002020010020880000201801002053
:1017BC000008014080000020840000208C000020E4
:1017CC009000002000BF06E000BF04E000BF02E074
:1017DC0000BF00E000BF00BF80BD00BF80B483B07D
:1017EC0000AF78607B68084A82FB03129210DB170B
:1017FC00D31A064A1360064B00221A6000BF0C373E
:10180C00BD4680BC704700BF676666663401002029
:10181C003801002080B483B000AF78607B68084A40
:10182C0082FB03129210DB17D31A064A1360064B85
:10183C0000221A6000BF0C37BD4680BC704700BF49
:10184C0067666666240100202801002080B483B0FE
:10185C0000AF78607B68084A82FB03129210DB179A
:10186C00D31A064A1360064B00221A6000BF0C37CD
:10187C00BD4680BC704700BF676666661C010020D1
:10188C002001002080B483B000AF78607B68084AE8
:10189C0082FB03129210DB17D31A064A1360064B15
:1018AC0000221A6000BF0C37BD4680BC704700BFD9
:1018BC0067666666140100201801002080B483B0AE
:1018CC0000AF78607B68084A82FB03129210DB172A
:1018DC00D31A064A1360064B00221A6000BF0C375D
:1018EC00BD4680BC704700BF676666660C01002071
:1018FC001001002080B483B000AF78607B68084A88
:10190C0082FB03129210DB17D31A064A1360064BA4
:10191C0000221A6000BF0C37BD4680BC704700BF68
:10192C0067666666040100200801002080B483B05D
:10193C0000AF78607B68084A82FB03129210DB17B9
:10194C00D31A064A1360064B00221A6000BF0C37EC
:10195C00BD4680BC704700BF67666666FC00002011
:10196C000001002080B483B000AF78607B68084A27
:10197C0082FB03129210DB17D31A064A1360064B34
:10198C0000221A6000BF0C37BD4680BC704700BFF8
:10199C0067666666F4000020F800002080B483B00F
:1019AC0000AF78607B68084A82FB03129210DB1749
:1019BC00D31A064A1360064B00221A6000BF0C377C
:1019CC00BD4680BC704700BF67666666EC000020B1
:1019DC00F000002080B483B000AF78607B68084AC8
:1019EC0082FB03129210DB17D31A064A1360064BC4
:1019FC0000221A6000BF0C37BD4680BC704700BF88
:101A0C0067666666E4000020E800002080B400AF42
:101A1C00594B1B68002B0BDD574B1B68013B564A7F
:101A2C001360554B1B68002B02D1544B01221A60DA
:101A3C00534B1B68002B0BDD514B1B68013B504A71
:101A4C0013604F4B1B68002B02D14E4B01221A60C6
:101A5C004D4B1B68002B0BDD4B4B1B68013B4A4A63
:101A6C001360494B1B68002B02D1484B01221A60B2
:101A7C00474B1B68002B0BDD454B1B68013B444A55
:101A8C001360434B1B68002B02D1424B01221A609E
:101A9C00414B1B68002B0BDD3F4B1B68013B3E4A47
:101AAC0013603D4B1B68002B02D13C4B01221A608A
:101ABC003B4B1B68002B0BDD394B1B68013B384A39
:101ACC001360374B1B68002B02D1364B01221A6076
:101ADC00354B1B68002B0BDD334B1B68013B324A2B
:101AEC001360314B1B68002B02D1304B01221A6062
:101AFC002F4B1B68002B0BDD2D4B1B68013B2C4A1D
:101B0C0013602B4B1B68002B02D12A4B01221A604D
:101B1C00294B1B68002B0BDD274B1B68013B264A0E
:101B2C001360254B1B68002B02D1244B01221A6039
:101B3C00234B1B68002B0BDD214B1B68013B204A00
:101B4C0013601F4B1B68002B02D11E4B01221A6025
:101B5C001D4B1B68002B0BDD1B4B1B68013B1A4AF2
:101B6C001360194B1B68002B02D1184B01221A6011
:101B7C0000BFBD4680BC7047E4000020E800002098
:101B8C00EC000020F0000020F4000020F800002001
:101B9C00FC000020000100200401002008010020AE
:101BAC000C0100201001002014010020180100205D
:101BBC002C010020300100202401002028010020ED
:101BCC001C010020200100203401002038010020DD
:101BDC0080B483B000AF0E4B9B690D4A43F00103F8
:101BEC0093610B4B9B6903F001037B607B68084B93
:101BFC00DB69074A43F08053D361054BDB6903F083
:101C0C0080533B603B6800BF0C37BD4680BC7047BF
:101C1C000010024080B584B000AF78607B681B6810
:101C2C00B3F1804F13D10C4BDB690B4A43F001032A
:101C3C00D361094BDB6903F00103FB60FB680022F5
:101C4C0000211C2000F049FA1C2000F062FA00BFB1
:101C5C001037BD4680BD00BF0010024080B400AFFD
:101C6C00FEE780B400AFFEE780B400AFFEE780B4BF
:101C7C0000AFFEE780B400AFFEE780B400AF00BF5A
:101C8C00BD4680BC704780B400AF00BFBD4680BC71
:101C9C00704780B400AF00BFBD4680BC704780B5B4
:101CAC0000AF00F027F900BF80BD000080B500AF89
:101CBC00024801F087F800BF80BD00BF9C000020E7
:101CCC0080B400AF00BFBD4680BC704780B483B009
:101CDC0000AF78607B68092B06DC114B00221A6080
:101CEC000F4A7B68536016E07B680E4A82FB031236
:101CFC009210DB17D31A0A4A13607968094B83FBDD
:101D0C0001239A10CB17D21A13469B0013445B0085
:101D1C00CA1A034B5A6000BF0C37BD4680BC7047D3
:101D2C003C0100206766666680B483B000AF7860C3
:101D3C00054B00221A607B680133034A536000BFD5
:101D4C000C37BD4680BC70474401002080B582B082
:101D5C0000AF78607B68002B03D07B68012B10D020
:101D6C001EE0124B1B681846FEF784FC002208216B
:101D7C000F4800F07CFB012210210D4800F077FB8E
:101D8C000FE00A4B5B681846FEF774FC0122082131
:101D9C00074800F06CFB00221021054800F067FB9F
:101DAC0000BF00BF0837BD4680BD00BF3C0100200E
:101DBC000008014080B582B000AF78607B68002BD2
:101DCC0003D07B68012B10D01EE0124B1B68184609
:101DDC00FEF7BEFA002202210F4800F048FB012258
:101DEC0004210D4800F043FB0FE00A4B5B681846DA
:101DFC00FEF7AEFA01220221074800F038FB002260
:101E0C000421054800F033FB00BF00BF0837BD4676
:101E1C0080BD00BF4401002000080140FFF750FFC7
:101E2C000B480C490C4A002302E0D458C45004332C
:101E3C00C4188C42F9D3094A094C002301E0136001
:101E4C000432A242FBD301F011FBFFF7B7F8704745
:101E5C00000000203C000020043500083C0000205D
:101E6C0050010020FEE7000080B500AF084B1B6856
:101E7C00074A43F010031360032000F023F90F20EE
:101E8C0000F008F8FFF7A4FE0023184680BD00BF41
:101E9C000020024080B582B000AF7860124B1A6807
:101EAC00124B1B7819464FF47A73B3FBF1F3B2FB68
:101EBC00F3F3184600F03BF90346002B01D0012345
:101ECC000EE07B680F2B0AD8002279684FF0FF30A8
:101EDC0000F003F9064A7B681360002300E001233D
:101EEC0018460837BD4680BD300000203800002061
:101EFC003400002080B400AF054B1B781A46054B0C
:101F0C001B681344034A136000BFBD4680BC704776
:101F1C00380000204C01002080B400AF024B1B683D
:101F2C001846BD4680BC70474C01002080B485B07B
:101F3C0000AF78607B6803F00703FB600C4BDB6839
:101F4C00BB60BA684FF6FF031340BB60FB681A0214
:101F5C00BB68134343F0BF6343F40033BB60044AD4
:101F6C00BB68D36000BF1437BD4680BC704700BF50
:101F7C0000ED00E080B400AF044BDB681B0A03F0FB
:101F8C0007031846BD4680BC704700BF00ED00E05B
:101F9C0080B483B000AF0346FB7197F90730002B78
:101FAC000BDBFB7903F01F02064997F907305B093D
:101FBC00012000FA02F241F8232000BF0C37BD4685
:101FCC0080BC704700E100E080B483B000AF0346F2
:101FDC003960FB7197F90730002B0ADB3B68DAB2EA
:101FEC000C4997F907301201D2B20B4483F8002345
:101FFC000AE03B68DAB20849FB7903F00F03043BB3
:10200C001201D2B20B441A7600BF0C37BD4680BC0D
:10201C00704700BF00E100E000ED00E080B489B043
:10202C0000AFF860B9607A60FB6803F00703FB61EE
:10203C00FB69C3F10703042B28BF0423BB61FB69B5
:10204C000433062B02D9FB69033B00E000237B61C0
:10205C004FF0FF32BB6902FA03F3DA43BB681A4054
:10206C007B699A404FF0FF317B6901FA03F3D94346
:10207C007B680B40134318462437BD4680BC704721
:10208C0080B582B000AF78607B68013BB3F1807F94
:10209C0001D301230FE00A4A7B68013B53600F21F7
:1020AC004FF0FF30FFF790FF054B00229A60044B76
:1020BC0007221A60002318460837BD4680BD00BFB2
:1020CC0010E000E080B582B000AF78607868FFF770
:1020DC002DFF00BF0837BD4680BD80B586B000AF70
:1020EC000346B9607A60FB7300237B61FFF742FF04
:1020FC0078617A68B9687869FFF790FF024697F9BA
:10210C000F3011461846FFF75FFF00BF1837BD466A
:10211C0080BD80B582B000AF0346FB7197F90730E4
:10212C001846FFF735FF00BF0837BD4680BD80B5A8
:10213C0082B000AF78607868FFF7A2FF03461846BC
:10214C000837BD4680BD000080B48BB000AF78600E
:10215C00396000237B6200233B6261E101227B6AD0
:10216C0002FA03F3FB613B681B68FA691340BB611D
:10217C00BA69FB699A4240F050813B685B68974AA8
:10218C0093425ED0954A934275D8954A934258D063
:10219C00934A93426FD8934A934252D0914A9342B6
:1021AC0069D8914A93424CD08F4A934263D88F4A54
:1021BC00934246D08D4A93425DD8122B2AD8122BCB
:1021CC0059D801A252F823F04F2200082922000806
:1021DC003B2200087D22000883220008832200088D
:1021EC00832200088322000883220008832200082F
:1021FC00832200088322000883220008832200081F
:10220C008322000883220008832200083122000860
:10221C0045220008764A934213D02CE03B68DB68D9
:10222C003B6229E03B68DB6804333B6224E03B689B
:10223C00DB6808333B621FE03B68DB680C333B62B6
:10224C001AE03B689B68002B02D104233B6213E02D
:10225C003B689B68012B05D108233B627B68FA69BC
:10226C001A6109E008233B627B68FA695A6103E052
:10227C0000233B6200E000BFBB69FF2B01D87B68E9
:10228C0001E07B6804337B61BB69FF2B02D87B6A5E
:10229C009B0002E07B6A083B9B003B617B691A68F0
:1022AC000F213B6901FA03F3DB431A40396A3B699E
:1022BC0001FA03F31A437B691A603B685B6803F00D
:1022CC008053002B00F0A9804A4B9B69494A43F08C
:1022DC0001039361474B9B6903F00103BB60BB682F
:1022EC00454A7B6A9B08023352F82330FB607B6AB9
:1022FC0003F003039B000F2202FA03F3DB43FA689B
:10230C001340FB607B683D4A93420DD07B683C4A8E
:10231C00934207D07B683B4A934201D1022304E0ED
:10232C00032302E0012300E000237A6A02F0030297
:10233C0092009340FA681343FB602F497B6A9B0819
:10234C000233FA6841F823203B685B6803F480137E
:10235C00002B06D02C4B9A682B49BB6913438B601E
:10236C0006E0294B9A68BB69DB43274913408B6015
:10237C003B685B6803F40013002B06D0224BDA6831
:10238C002149BB691343CB6006E01F4BDA68BB697C
:10239C00DB431D491340CB603B685B6803F400339F
:1023AC00002B06D0184B5A681749BB6913434B6076
:1023BC0006E0154B5A68BB69DB43134913404B606D
:1023CC003B685B6803F48033002B1FD00E4B1A68FC
:1023DC000D49BB6913430B601FE000BF00003210B6
:1023EC00000031100000221000002110000012101B
:1023FC0000001110001002400000014000080140D4
:10240C00000C014000100140000401400B4B1A6805
:10241C00BB69DB43094913400B607B6A01337B6268
:10242C003B681A687B6A22FA03F3002B7FF496AEA2
:10243C0000BF00BF2C37BD4680BC70470004014074
:10244C0080B485B000AF78600B467B807B689A685F
:10245C007B881340002B02D00123FB7301E0002387
:10246C00FB73FB7B18461437BD4680BC704780B4A9
:10247C0083B000AF78600B467B8013467B707B7813
:10248C00002B03D07A887B681A6103E07B881A04DE
:10249C007B681A6100BF0C37BD4680BC704780B4A6
:1024AC0085B000AF78600B467B807B68DB68FB6097
:1024BC007A88FB6813401A04FB68D9437B880B406D
:1024CC001A437B681A6100BF1437BD4680BC704745
:1024DC0080B586B000AF78607B68002B01D10123FA
:1024EC0072E27B681B6803F00103002B00F087800D
:1024FC00924B5B6803F00C03042B0CD08F4B5B6886
:10250C0003F00C03082B12D18C4B5B6803F4803363
:10251C00B3F5803F0BD1894B1B6803F40033002BC0
:10252C006CD07B685B68002B68D101234CE27B6824
:10253C005B68B3F5803F06D1804B1B687F4A43F440
:10254C00803313602EE07B685B68002B0CD17B4BD7
:10255C001B687A4A23F480331360784B1B68774AE4
:10256C0023F4802313601DE07B685B68B3F5A02F18
:10257C000CD1724B1B68714A43F4802313606F4B70
:10258C001B686E4A43F4803313600BE06B4B1B6883
:10259C006A4A23F480331360684B1B68674A23F440
:1025AC00802313607B685B68002B13D0FFF7B4FCAF
:1025BC00386108E0FFF7B0FC02463B69D31A642B84
:1025CC0001D9032300E25D4B1B6803F40033002B9D
:1025DC00F0D014E0FFF7A0FC386108E0FFF79CFC9A
:1025EC0002463B69D31A642B01D90323ECE1534B0C
:1025FC001B6803F40033002BF0D100E000BF7B68B4
:10260C001B6803F00203002B63D04C4B5B6803F098
:10261C000C03002B0BD0494B5B6803F00C03082B0D
:10262C001CD1464B5B6803F48033002B16D1434B13
:10263C001B6803F00203002B05D07B681B69012B80
:10264C0001D00123C0E13D4B1B6823F0F8027B68ED
:10265C005B69DB00394913430B603AE07B681B690B
:10266C00002B20D0364B01221A60FFF755FC386145
:10267C0008E0FFF751FC02463B69D31A022B01D943
:10268C000323A1E12D4B1B6803F00203002BF0D0B8
:10269C002A4B1B6823F0F8027B685B69DB00274937
:1026AC0013430B6015E0264B00221A60FFF734FC35
:1026BC00386108E0FFF730FC02463B69D31A022B65
:1026CC0001D9032380E11D4B1B6803F00203002B8F
:1026DC00F0D17B681B6803F00803002B3AD07B68B1
:1026EC009B69002B19D0174B01221A60FFF714FCC1
:1026FC00386108E0FFF710FC02463B69D31A022B45
:10270C0001D9032360E10D4B5B6A03F00203002B3C
:10271C00F0D0012000F09CFA1CE00A4B00221A6059
:10272C00FFF7FAFB38610FE0FFF7F6FB02463B6957
:10273C00D31A022B08D9032346E100BF0010024034
:10274C000000424280044242924B5B6A03F0020357
:10275C00002BE9D17B681B6803F00403002B00F00D
:10276C00A6800023FB758B4BDB6903F08053002B99
:10277C000DD1884BDB69874A43F08053D361854B7D
:10278C00DB6903F08053BB60BB680123FB75824B94
:10279C001B6803F48073002B18D17F4B1B687E4A97
:1027AC0043F480731360FFF7B7FB386108E0FFF761
:1027BC00B3FB02463B69D31A642B01D9032303E113
:1027CC00754B1B6803F48073002BF0D07B68DB68BF
:1027DC00012B06D16F4B1B6A6E4A43F00103136247
:1027EC002DE07B68DB68002B0CD16A4B1B6A694AB5
:1027FC0023F001031362674B1B6A664A23F0040340
:10280C0013621CE07B68DB68052B0CD1614B1B6AE7
:10281C00604A43F0040313625E4B1B6A5D4A43F04B
:10282C00010313620BE05B4B1B6A5A4A23F0010352
:10283C001362584B1B6A574A23F0040313627B68DC
:10284C00DB68002B15D0FFF767FB38610AE0FFF758
:10285C0063FB02463B69D31A41F28832934201D999
:10286C000323B1E04B4B1B6A03F00203002BEED0A9
:10287C0014E0FFF751FB38610AE0FFF74DFB02460D
:10288C003B69D31A41F28832934201D903239BE06E
:10289C00404B1B6A03F00203002BEED1FB7D012B96
:1028AC0005D13C4BDB693B4A23F08053D3617B68F9
:1028BC00DB69002B00F08780364B5B6803F00C0360
:1028CC00082B61D07B68DB69022B46D1334B00228D
:1028DC001A60FFF721FB386108E0FFF71DFB024689
:1028EC003B69D31A022B01D903236DE0294B1B68DA
:1028FC0003F00073002BF0D17B681B6AB3F5803FAB
:10290C0008D1244B5B6823F400327B689B68214917
:10291C0013434B601F4B5B6823F474127B68196A7A
:10292C007B685B6A0B431B4913434B601B4B0122B7
:10293C001A60FFF7F1FA386108E0FFF7EDFA02468A
:10294C003B69D31A022B01D903233DE0114B1B68C1
:10295C0003F00073002BF0D035E0104B00221A600E
:10296C00FFF7DAFA386108E0FFF7D6FA02463B695E
:10297C00D31A022B01D9032326E0064B1B6803F064
:10298C000073002BF0D11EE07B68DB69012B07D1B3
:10299C00012319E000100240007000406000424228
:1029AC000B4B5B68FB60FB6803F480327B681B6A33
:1029BC009A4206D1FB6803F470127B685B6A9A42F8
:1029CC0001D0012300E0002318461837BD4680BD16
:1029DC000010024080B584B000AF786039607B682D
:1029EC00002B01D10123D0E06A4B1B6803F00703D5
:1029FC003A689A4210D9674B1B6823F00702654965
:102A0C003B6813430B60634B1B6803F007033A6886
:102A1C009A4201D00123B8E07B681B6803F00203E3
:102A2C00002B20D07B681B6803F00403002B05D01F
:102A3C00594B5B68584A43F4E06353607B681B68EE
:102A4C0003F00803002B05D0534B5B68524A43F448
:102A5C0060535360504B5B6823F0F0027B689B68BB
:102A6C004D4913434B607B681B6803F00103002B3B
:102A7C0040D07B685B68012B07D1474B1B6803F484
:102A8C000033002B15D101237FE07B685B68022BA0
:102A9C0007D1414B1B6803F00073002B09D10123B4
:102AAC0073E03D4B1B6803F00203002B01D10123A3
:102ABC006BE0394B5B6823F003027B685B6836493B
:102ACC0013434B60FFF728FAF8600AE0FFF724FA8B
:102ADC000246FB68D31A41F28832934201D9032390
:102AEC0053E02D4B5B6803F00C027B685B689B002A
:102AFC009A42EBD1274B1B6803F007033A689A42C2
:102B0C0010D2244B1B6823F0070222493B68134365
:102B1C000B60204B1B6803F007033A689A4201D004
:102B2C00012332E07B681B6803F00403002B08D000
:102B3C00194B5B6823F4E0627B68DB68164913432E
:102B4C004B607B681B6803F00803002B09D0124B09
:102B5C005B6823F460527B681B69DB000E491343EE
:102B6C004B6000F021F802460B4B5B681B0903F02D
:102B7C000F030A49CB5C22FA03F3094A1360094B91
:102B8C001B681846FFF786F9002318461037BD4618
:102B9C0080BD00BF0020024000100240D834000865
:102BAC00300000203400002080B487B000AF002338
:102BBC00FB600023BB6000237B6100237B60002350
:102BCC003B611E4B5B68FB60FB6803F00C03042B42
:102BDC0002D0082B03D027E0194B3B6127E0FB68A0
:102BEC009B0C03F00F03174AD35C7B60FB6803F468
:102BFC008033002B10D0114B5B685B0C03F001038E
:102C0C00114AD35CBB607B680D4A03FB02F2BB68C4
:102C1C00B2FBF3F37B6104E07B680C4A02FB03F329
:102C2C007B617B693B6102E0054B3B6100BF3B690B
:102C3C0018461C37BD4680BC704700BF00100240D0
:102C4C0000127A00E8340008F834000800093D004E
:102C5C0080B485B000AF78600A4B1B680A4AA2FBAF
:102C6C0003235B0A7A6802FB03F3FB6000BFFB687B
:102C7C005A1EFA60002BF9D100BF00BF1437BD46B5
:102C8C0080BC704730000020D34D621080B582B0FC
:102C9C0000AF78607B68002B01D1012341E07B6899
:102CAC0093F83D30DBB2002B06D17B68002283F811
:102CBC003C207868FEF7AEFF7B68022283F83D204B
:102CCC007B681A687B6804331946104600F06EFA6C
:102CDC007B68012283F846207B68012283F83E2022
:102CEC007B68012283F83F207B68012283F8402017
:102CFC007B68012283F841207B68012283F8422003
:102D0C007B68012283F843207B68012283F84420EE
:102D1C007B68012283F845207B68012283F83D20E3
:102D2C00002318460837BD4680BD000080B485B02E
:102D3C0000AF78607B6893F83D30DBB2012B01D09B
:102D4C00012335E07B68022283F83D207B681B68F9
:102D5C00DA687B681B6842F00102DA607B681B68EA
:102D6C00164A934209D07B681B68B3F1804F04D09C
:102D7C007B681B68124A934211D17B681B689B6865
:102D8C0003F00703FB60FB68062B10D07B681B6805
:102D9C001A687B681B6842F001021A6007E07B68C6
:102DAC001B681A687B681B6842F001021A600023DA
:102DBC0018461437BD4680BC704700BF002C01403C
:102DCC000004004080B582B000AF78607B681B685F
:102DDC001B6903F00203022B22D17B681B68DB68A2
:102DEC0003F00203022B1BD17B681B686FF00202FD
:102DFC001A617B6801221A777B681B689B6903F058
:102E0C000303002B03D0786800F0B4F905E0786870
:102E1C0000F0A7F9786800F0B6F97B6800221A7701
:102E2C007B681B681B6903F00403042B22D17B68AD
:102E3C001B68DB6803F00403042B1BD17B681B6845
:102E4C006FF004021A617B6802221A777B681B6898
:102E5C009B6903F44073002B03D0786800F08AF967
:102E6C0005E0786800F07DF9786800F08CF97B68F3
:102E7C0000221A777B681B681B6903F00803082B78
:102E8C0022D17B681B68DB6803F00803082B1BD17D
:102E9C007B681B686FF008021A617B6804221A7742
:102EAC007B681B68DB6903F00303002B03D0786895
:102EBC0000F060F905E0786800F053F9786800F0EC
:102ECC0062F97B6800221A777B681B681B6903F028
:102EDC001003102B22D17B681B68DB6803F01003F6
:102EEC00102B1BD17B681B686FF010021A617B687A
:102EFC0008221A777B681B68DB6903F44073002B8C
:102F0C0003D0786800F036F905E0786800F029F90C
:102F1C00786800F038F97B6800221A777B681B68A8
:102F2C001B6903F00103012B0ED17B681B68DB6866
:102F3C0003F00103012B07D17B681B686FF00102C2
:102F4C001A617868FEF77AF97B681B681B6903F0D5
:102F5C008003802B0ED17B681B68DB6803F0800339
:102F6C00802B07D17B681B686FF080021A61786830
:102F7C0000F06BFA7B681B681B6903F04003402B65
:102F8C000ED17B681B68DB6803F04003402B07D134
:102F9C007B681B686FF040021A61786800F0FCF8DF
:102FAC007B681B681B6903F02003202B0ED17B6808
:102FBC001B68DB6803F02003202B07D17B681B68A0
:102FCC006FF020021A61786800F036FA00BF0837FB
:102FDC00BD4680BD80B584B000AF786039600023F9
:102FEC00FB737B6893F83C30012B01D10223B4E0D6
:102FFC007B68012283F83C207B68022283F83D2009
:10300C007B681B689B68BB60BB6823F07703BB6065
:10301C00BB6823F47F43BB607B681B68BA689A600B
:10302C003B681B68B3F5005F3ED0B3F5005F00F260
:10303C008780B3F5805F00F08680B3F5805F7FD822
:10304C00702B1AD0702B7BD8602B50D0602B77D87C
:10305C00502B3CD0502B73D8402B58D0402B6FD8D2
:10306C00302B64D0302B6BD8202B60D0202B67D822
:10307C00002B5CD0102B5AD062E07B6818683B6840
:10308C0099683B685A683B68DB6800F05EF97B68BE
:10309C001B689B68BB60BB6843F07703BB607B68B5
:1030AC001B68BA689A604FE07B6818683B6899683F
:1030BC003B685A683B68DB6800F047F97B681B6823
:1030CC009A687B681B6842F480429A603CE07B689B
:1030DC0018683B6859683B68DB681A4600F0BEF814
:1030EC007B681B685021184600F015F92CE07B68B2
:1030FC0018683B6859683B68DB681A4600F0DCF8D6
:10310C007B681B686021184600F005F91CE07B68A1
:10311C0018683B6859683B68DB681A4600F09EF8F3
:10312C007B681B684021184600F0F5F80CE07B68C2
:10313C001A683B681B681946104600F0ECF803E06F
:10314C000123FB7300E000BF7B68012283F83D2064
:10315C007B68002283F83C20FB7B18461037BD4669
:10316C0080BD80B483B000AF786000BF0C37BD4623
:10317C0080BC704780B483B000AF786000BF0C3760
:10318C00BD4680BC704780B483B000AF786000BF90
:10319C000C37BD4680BC704780B483B000AF7860FC
:1031AC0000BF0C37BD4680BC7047000080B485B0B2
:1031BC0000AF786039607B681B68FB607B68254AD0
:1031CC00934207D07B68B3F1804F03D07B68224ACF
:1031DC00934208D1FB6823F07003FB603B685B688B
:1031EC00FA681343FB607B681A4A934207D07B68EA
:1031FC00B3F1804F03D07B68174A934208D1FB6828
:10320C0023F44073FB603B68DB68FA681343FB6094
:10321C00FB6823F080023B685B691343FB607B68AF
:10322C00FA681A603B689A687B68DA623B681A68CD
:10323C007B689A627B68074A934203D13B681A69A0
:10324C007B681A637B6801225A6100BF1437BD4644
:10325C0080BC7047002C01400004004080B487B053
:10326C0000AFF860B9607A60FB681B6A7B61FB6831
:10327C001B6A23F00102FB681A62FB689B693B61C5
:10328C003B6923F0F0033B617B681B013A691343F4
:10329C003B617B6923F00A037B617A69BB6813434A
:1032AC007B61FB683A699A61FB687A691A6200BFB4
:1032BC001C37BD4680BC704780B487B000AFF86047
:1032CC00B9607A60FB681B6A7B61FB681B6A23F040
:1032DC001002FB681A62FB689B693B613B6923F433
:1032EC0070433B617B681B033A6913433B617B6909
:1032FC0023F0A0037B61BB681B017A6913437B61DC
:10330C00FB683A699A61FB687A691A6200BF1C37DC
:10331C00BD4680BC704780B485B000AF7860396022
:10332C007B689B68FB60FB6823F07003FB603A686A
:10333C00FB68134343F00703FB607B68FA689A60F1
:10334C0000BF1437BD4680BC704780B487B000AF57
:10335C00F860B9607A603B60FB689B687B617B6955
:10336C0023F47F437B613B681A027B681A43BB687A
:10337C0013437A6913437B61FB687A699A6000BFD7
:10338C001C37BD4680BC704780B485B000AF7860F8
:10339C0039607B6893F83C30012B01D1022341E06A
:1033AC007B68012283F83C207B68022283F83D2055
:1033BC007B681B685B68FB607B681B689B68BB60F9
:1033CC00FB6823F07003FB603B681B68FA681343CF
:1033DC00FB607B681B68FA685A607B681B68144A40
:1033EC00934209D07B681B68B3F1804F04D07B6893
:1033FC001B68104A93420CD1BB6823F08003BB605E
:10340C003B685B68BA681343BB607B681B68BA682F
:10341C009A607B68012283F83D207B68002283F848
:10342C003C20002318461437BD4680BC704700BFB3
:10343C00002C01400004004080B483B000AF7860E1
:10344C0000BF0C37BD4680BC704780B483B000AF62
:10345C00786000BF0C37BD4680BC70470346024401
:10346C00934200D1704703F8011BF9E770B50026B1
:10347C000C4D0D4C641BA410A64209D100F01AF897
:10348C0000260A4D0A4C641BA410A64205D170BD3F
:10349C0055F8043B98470136EEE755F8043B98473E
:1034AC000136F2E7FC340008FC340008FC34000858
:1034BC0000350008F8B500BFF8BC08BC9E46704744
:0C34CC00F8B500BFF8BC08BC9E46704775
:1034D80000000000000000000102030406070809BC
:1034E80002030405060708090A0B0C0D0E0F10103D
:0434F80001020000CD
:0434FC003101000892
:043500000D010008B1
:1035040001000000010000000100000001000000B3
:1035140001000000010000000100000001000000A3
:103524000100000001000000010000000100000093
:0C3534000024F400100000000100000062
:0400000508001E29A8
:00000001FF
